{
	"data": {
		"bytecode": {
			"linkReferences": {},
			"object": "6080604052348015600e575f5ffd5b50335f5f6101000a81548173ffffffffffffffffffffffffffffffffffffffff021916908373ffffffffffffffffffffffffffffffffffffffff1602179055506115e28061005b5f395ff3fe608060405260043610610054575f3560e01c80632a08deda14610058578063369a489d146100825780636e7301fd146100aa5780637943da69146100b4578063b499b79a146100ca578063e83a1b00146100f2575b5f5ffd5b348015610063575f5ffd5b5061006c61011c565b60405161007991906109a0565b60405180910390f35b34801561008d575f5ffd5b506100a860048036038101906100a39190610a24565b610123565b005b6100b2610385565b005b3480156100bf575f5ffd5b506100c8610387565b005b3480156100d5575f5ffd5b506100f060048036038101906100eb9190610bf0565b610483565b005b3480156100fd575f5ffd5b50610106610739565b6040516101139190610de2565b60405180910390f35b5f47905090565b5f5f9054906101000a900473ffffffffffffffffffffffffffffffffffffffff1673ffffffffffffffffffffffffffffffffffffffff163373ffffffffffffffffffffffffffffffffffffffff16146101b1576040517f08c379a00000000000000000000000000000000000000000000000000000000081526004016101a890610e5c565b60405180910390fd5b5f5f90505b600180549050811015610381578173ffffffffffffffffffffffffffffffffffffffff16600182815481106101ee576101ed610e7a565b5b905f5260205f2090600302015f015f9054906101000a900473ffffffffffffffffffffffffffffffffffffffff1673ffffffffffffffffffffffffffffffffffffffff16036103745760018080805490506102499190610ed4565b8154811061025a57610259610e7a565b5b905f5260205f2090600302016001828154811061027a57610279610e7a565b5b905f5260205f2090600302015f82015f9054906101000a900473ffffffffffffffffffffffffffffffffffffffff16815f015f6101000a81548173ffffffffffffffffffffffffffffffffffffffff021916908373ffffffffffffffffffffffffffffffffffffffff160217905550600182018160010190816102fd9190611119565b5060028201548160020155905050600180548061031d5761031c6111fe565b5b600190038181905f5260205f2090600302015f5f82015f6101000a81549073ffffffffffffffffffffffffffffffffffffffff0219169055600182015f6103649190610930565b600282015f905550509055610381565b80806001019150506101b6565b5050565b565b5f4790505f81116103cd576040517f08c379a00000000000000000000000000000000000000000000000000000000081526004016103c490611275565b60405180910390fd5b5f5f90505b60018054905081101561047f575f6064600183815481106103f6576103f5610e7a565b5b905f5260205f20906003020160020154846104119190611293565b61041b9190611301565b90505f811115610471576104706001838154811061043c5761043b610e7a565b5b905f5260205f2090600302015f015f9054906101000a900473ffffffffffffffffffffffffffffffffffffffff1682610883565b5b5080806001019150506103d2565b5050565b5f5f9054906101000a900473ffffffffffffffffffffffffffffffffffffffff1673ffffffffffffffffffffffffffffffffffffffff163373ffffffffffffffffffffffffffffffffffffffff1614610511576040517f08c379a000000000000000000000000000000000000000000000000000000000815260040161050890610e5c565b60405180910390fd5b5f5f90505f5f90505f5f90505b6001805490508110156105e2578573ffffffffffffffffffffffffffffffffffffffff166001828154811061055657610555610e7a565b5b905f5260205f2090600302015f015f9054906101000a900473ffffffffffffffffffffffffffffffffffffffff1673ffffffffffffffffffffffffffffffffffffffff16036105a457600191505b600181815481106105b8576105b7610e7a565b5b905f5260205f20906003020160020154836105d39190611331565b9250808060010191505061051e565b50606483836105f19190611331565b1115610632576040517f08c379a0000000000000000000000000000000000000000000000000000000008152600401610629906113ae565b60405180910390fd5b8015610673576040517f08c379a000000000000000000000000000000000000000000000000000000000815260040161066a90611416565b60405180910390fd5b600160405180606001604052808773ffffffffffffffffffffffffffffffffffffffff16815260200186815260200185815250908060018154018082558091505060019003905f5260205f2090600302015f909190919091505f820151815f015f6101000a81548173ffffffffffffffffffffffffffffffffffffffff021916908373ffffffffffffffffffffffffffffffffffffffff16021790555060208201518160010190816107259190611434565b506040820151816002015550505050505050565b60606001805480602002602001604051908101604052809291908181526020015f905b8282101561087a578382905f5260205f2090600302016040518060600160405290815f82015f9054906101000a900473ffffffffffffffffffffffffffffffffffffffff1673ffffffffffffffffffffffffffffffffffffffff1673ffffffffffffffffffffffffffffffffffffffff1681526020016001820180546107e190610f34565b80601f016020809104026020016040519081016040528092919081815260200182805461080d90610f34565b80156108585780601f1061082f57610100808354040283529160200191610858565b820191905f5260205f20905b81548152906001019060200180831161083b57829003601f168201915b505050505081526020016002820154815250508152602001906001019061075c565b50505050905090565b5f8273ffffffffffffffffffffffffffffffffffffffff16826040516108a890611530565b5f6040518083038185875af1925050503d805f81146108e2576040519150601f19603f3d011682016040523d82523d5f602084013e6108e7565b606091505b505090508061092b576040517f08c379a00000000000000000000000000000000000000000000000000000000081526004016109229061158e565b60405180910390fd5b505050565b50805461093c90610f34565b5f825580601f1061094d575061096a565b601f0160209004905f5260205f2090810190610969919061096d565b5b50565b5b80821115610984575f815f90555060010161096e565b5090565b5f819050919050565b61099a81610988565b82525050565b5f6020820190506109b35f830184610991565b92915050565b5f604051905090565b5f5ffd5b5f5ffd5b5f73ffffffffffffffffffffffffffffffffffffffff82169050919050565b5f6109f3826109ca565b9050919050565b610a03816109e9565b8114610a0d575f5ffd5b50565b5f81359050610a1e816109fa565b92915050565b5f60208284031215610a3957610a386109c2565b5b5f610a4684828501610a10565b91505092915050565b5f610a59826109ca565b9050919050565b610a6981610a4f565b8114610a73575f5ffd5b50565b5f81359050610a8481610a60565b92915050565b5f5ffd5b5f5ffd5b5f601f19601f8301169050919050565b7f4e487b71000000000000000000000000000000000000000000000000000000005f52604160045260245ffd5b610ad882610a92565b810181811067ffffffffffffffff82111715610af757610af6610aa2565b5b80604052505050565b5f610b096109b9565b9050610b158282610acf565b919050565b5f67ffffffffffffffff821115610b3457610b33610aa2565b5b610b3d82610a92565b9050602081019050919050565b828183375f83830152505050565b5f610b6a610b6584610b1a565b610b00565b905082815260208101848484011115610b8657610b85610a8e565b5b610b91848285610b4a565b509392505050565b5f82601f830112610bad57610bac610a8a565b5b8135610bbd848260208601610b58565b91505092915050565b610bcf81610988565b8114610bd9575f5ffd5b50565b5f81359050610bea81610bc6565b92915050565b5f5f5f60608486031215610c0757610c066109c2565b5b5f610c1486828701610a76565b935050602084013567ffffffffffffffff811115610c3557610c346109c6565b5b610c4186828701610b99565b9250506040610c5286828701610bdc565b9150509250925092565b5f81519050919050565b5f82825260208201905092915050565b5f819050602082019050919050565b610c8e81610a4f565b82525050565b5f81519050919050565b5f82825260208201905092915050565b8281835e5f83830152505050565b5f610cc682610c94565b610cd08185610c9e565b9350610ce0818560208601610cae565b610ce981610a92565b840191505092915050565b610cfd81610988565b82525050565b5f606083015f830151610d185f860182610c85565b5060208301518482036020860152610d308282610cbc565b9150506040830151610d456040860182610cf4565b508091505092915050565b5f610d5b8383610d03565b905092915050565b5f602082019050919050565b5f610d7982610c5c565b610d838185610c66565b935083602082028501610d9585610c76565b805f5b85811015610dd05784840389528151610db18582610d50565b9450610dbc83610d63565b925060208a01995050600181019050610d98565b50829750879550505050505092915050565b5f6020820190508181035f830152610dfa8184610d6f565b905092915050565b5f82825260208201905092915050565b7f4f6e6c79206f776e65722063616e2063616c6c000000000000000000000000005f82015250565b5f610e46601383610e02565b9150610e5182610e12565b602082019050919050565b5f6020820190508181035f830152610e7381610e3a565b9050919050565b7f4e487b71000000000000000000000000000000000000000000000000000000005f52603260045260245ffd5b7f4e487b71000000000000000000000000000000000000000000000000000000005f52601160045260245ffd5b5f610ede82610988565b9150610ee983610988565b9250828203905081811115610f0157610f00610ea7565b5b92915050565b7f4e487b71000000000000000000000000000000000000000000000000000000005f52602260045260245ffd5b5f6002820490506001821680610f4b57607f821691505b602082108103610f5e57610f5d610f07565b5b50919050565b5f81549050610f7281610f34565b9050919050565b5f819050815f5260205f209050919050565b5f6020601f8301049050919050565b5f82821b905092915050565b5f60088302610fd57fffffffffffffffffffffffffffffffffffffffffffffffffffffffffffffffff82610f9a565b610fdf8683610f9a565b95508019841693508086168417925050509392505050565b5f819050919050565b5f61101a61101561101084610988565b610ff7565b610988565b9050919050565b5f819050919050565b61103383611000565b61104761103f82611021565b848454610fa6565b825550505050565b5f5f905090565b61105e61104f565b61106981848461102a565b505050565b5b8181101561108c576110815f82611056565b60018101905061106f565b5050565b601f8211156110d1576110a281610f79565b6110ab84610f8b565b810160208510156110ba578190505b6110ce6110c685610f8b565b83018261106e565b50505b505050565b5f82821c905092915050565b5f6110f15f19846008026110d6565b1980831691505092915050565b5f61110983836110e2565b9150826002028217905092915050565b8181036111275750506111fc565b61113082610f64565b67ffffffffffffffff81111561114957611148610aa2565b5b6111538254610f34565b61115e828285611090565b5f601f83116001811461118b575f8415611179578287015490505b61118385826110fe565b8655506111f5565b601f19841661119987610f79565b96506111a486610f79565b5f5b828110156111cb578489015482556001820191506001850194506020810190506111a6565b868310156111e857848901546111e4601f8916826110e2565b8355505b6001600288020188555050505b5050505050505b565b7f4e487b71000000000000000000000000000000000000000000000000000000005f52603160045260245ffd5b7f4e6f204d6f6e65790000000000000000000000000000000000000000000000005f82015250565b5f61125f600883610e02565b915061126a8261122b565b602082019050919050565b5f6020820190508181035f83015261128c81611253565b9050919050565b5f61129d82610988565b91506112a883610988565b92508282026112b681610988565b915082820484148315176112cd576112cc610ea7565b5b5092915050565b7f4e487b71000000000000000000000000000000000000000000000000000000005f52601260045260245ffd5b5f61130b82610988565b915061131683610988565b925082611326576113256112d4565b5b828204905092915050565b5f61133b82610988565b915061134683610988565b925082820190508082111561135e5761135d610ea7565b5b92915050565b7f546f74616c2070657263656e74206578636565647320313030250000000000005f82015250565b5f611398601a83610e02565b91506113a382611364565b602082019050919050565b5f6020820190508181035f8301526113c58161138c565b9050919050565b7f576169747265737320616c7265616479206578697374730000000000000000005f82015250565b5f611400601783610e02565b915061140b826113cc565b602082019050919050565b5f6020820190508181035f83015261142d816113f4565b9050919050565b61143d82610c94565b67ffffffffffffffff81111561145657611455610aa2565b5b6114608254610f34565b61146b828285611090565b5f60209050601f83116001811461149c575f841561148a578287015190505b61149485826110fe565b8655506114fb565b601f1984166114aa86610f79565b5f5b828110156114d1578489015182556001820191506020850194506020810190506114ac565b868310156114ee57848901516114ea601f8916826110e2565b8355505b6001600288020188555050505b505050505050565b5f81905092915050565b50565b5f61151b5f83611503565b91506115268261150d565b5f82019050919050565b5f61153a82611510565b9150819050919050565b7f5472616e73666572206661696c65642e000000000000000000000000000000005f82015250565b5f611578601083610e02565b915061158382611544565b602082019050919050565b5f6020820190508181035f8301526115a58161156c565b905091905056fea264697066735822122018e37b4abc23bf26d7bafd2f13a72164b84ae1e2fa9765d62c2531ba4ba9ff5664736f6c634300081f0033",
			"opcodes": "PUSH1 0x80 PUSH1 0x40 MSTORE CALLVALUE DUP1 ISZERO PUSH1 0xE JUMPI PUSH0 PUSH0 REVERT JUMPDEST POP CALLER PUSH0 PUSH0 PUSH2 0x100 EXP DUP2 SLOAD DUP2 PUSH20 0xFFFFFFFFFFFFFFFFFFFFFFFFFFFFFFFFFFFFFFFF MUL NOT AND SWAP1 DUP4 PUSH20 0xFFFFFFFFFFFFFFFFFFFFFFFFFFFFFFFFFFFFFFFF AND MUL OR SWAP1 SSTORE POP PUSH2 0x15E2 DUP1 PUSH2 0x5B PUSH0 CODECOPY PUSH0 RETURN INVALID PUSH1 0x80 PUSH1 0x40 MSTORE PUSH1 0x4 CALLDATASIZE LT PUSH2 0x54 JUMPI PUSH0 CALLDATALOAD PUSH1 0xE0 SHR DUP1 PUSH4 0x2A08DEDA EQ PUSH2 0x58 JUMPI DUP1 PUSH4 0x369A489D EQ PUSH2 0x82 JUMPI DUP1 PUSH4 0x6E7301FD EQ PUSH2 0xAA JUMPI DUP1 PUSH4 0x7943DA69 EQ PUSH2 0xB4 JUMPI DUP1 PUSH4 0xB499B79A EQ PUSH2 0xCA JUMPI DUP1 PUSH4 0xE83A1B00 EQ PUSH2 0xF2 JUMPI JUMPDEST PUSH0 PUSH0 REVERT JUMPDEST CALLVALUE DUP1 ISZERO PUSH2 0x63 JUMPI PUSH0 PUSH0 REVERT JUMPDEST POP PUSH2 0x6C PUSH2 0x11C JUMP JUMPDEST PUSH1 0x40 MLOAD PUSH2 0x79 SWAP2 SWAP1 PUSH2 0x9A0 JUMP JUMPDEST PUSH1 0x40 MLOAD DUP1 SWAP2 SUB SWAP1 RETURN JUMPDEST CALLVALUE DUP1 ISZERO PUSH2 0x8D JUMPI PUSH0 PUSH0 REVERT JUMPDEST POP PUSH2 0xA8 PUSH1 0x4 DUP1 CALLDATASIZE SUB DUP2 ADD SWAP1 PUSH2 0xA3 SWAP2 SWAP1 PUSH2 0xA24 JUMP JUMPDEST PUSH2 0x123 JUMP JUMPDEST STOP JUMPDEST PUSH2 0xB2 PUSH2 0x385 JUMP JUMPDEST STOP JUMPDEST CALLVALUE DUP1 ISZERO PUSH2 0xBF JUMPI PUSH0 PUSH0 REVERT JUMPDEST POP PUSH2 0xC8 PUSH2 0x387 JUMP JUMPDEST STOP JUMPDEST CALLVALUE DUP1 ISZERO PUSH2 0xD5 JUMPI PUSH0 PUSH0 REVERT JUMPDEST POP PUSH2 0xF0 PUSH1 0x4 DUP1 CALLDATASIZE SUB DUP2 ADD SWAP1 PUSH2 0xEB SWAP2 SWAP1 PUSH2 0xBF0 JUMP JUMPDEST PUSH2 0x483 JUMP JUMPDEST STOP JUMPDEST CALLVALUE DUP1 ISZERO PUSH2 0xFD JUMPI PUSH0 PUSH0 REVERT JUMPDEST POP PUSH2 0x106 PUSH2 0x739 JUMP JUMPDEST PUSH1 0x40 MLOAD PUSH2 0x113 SWAP2 SWAP1 PUSH2 0xDE2 JUMP JUMPDEST PUSH1 0x40 MLOAD DUP1 SWAP2 SUB SWAP1 RETURN JUMPDEST PUSH0 SELFBALANCE SWAP1 POP SWAP1 JUMP JUMPDEST PUSH0 PUSH0 SWAP1 SLOAD SWAP1 PUSH2 0x100 EXP SWAP1 DIV PUSH20 0xFFFFFFFFFFFFFFFFFFFFFFFFFFFFFFFFFFFFFFFF AND PUSH20 0xFFFFFFFFFFFFFFFFFFFFFFFFFFFFFFFFFFFFFFFF AND CALLER PUSH20 0xFFFFFFFFFFFFFFFFFFFFFFFFFFFFFFFFFFFFFFFF AND EQ PUSH2 0x1B1 JUMPI PUSH1 0x40 MLOAD PUSH32 0x8C379A000000000000000000000000000000000000000000000000000000000 DUP2 MSTORE PUSH1 0x4 ADD PUSH2 0x1A8 SWAP1 PUSH2 0xE5C JUMP JUMPDEST PUSH1 0x40 MLOAD DUP1 SWAP2 SUB SWAP1 REVERT JUMPDEST PUSH0 PUSH0 SWAP1 POP JUMPDEST PUSH1 0x1 DUP1 SLOAD SWAP1 POP DUP2 LT ISZERO PUSH2 0x381 JUMPI DUP2 PUSH20 0xFFFFFFFFFFFFFFFFFFFFFFFFFFFFFFFFFFFFFFFF AND PUSH1 0x1 DUP3 DUP2 SLOAD DUP2 LT PUSH2 0x1EE JUMPI PUSH2 0x1ED PUSH2 0xE7A JUMP JUMPDEST JUMPDEST SWAP1 PUSH0 MSTORE PUSH1 0x20 PUSH0 KECCAK256 SWAP1 PUSH1 0x3 MUL ADD PUSH0 ADD PUSH0 SWAP1 SLOAD SWAP1 PUSH2 0x100 EXP SWAP1 DIV PUSH20 0xFFFFFFFFFFFFFFFFFFFFFFFFFFFFFFFFFFFFFFFF AND PUSH20 0xFFFFFFFFFFFFFFFFFFFFFFFFFFFFFFFFFFFFFFFF AND SUB PUSH2 0x374 JUMPI PUSH1 0x1 DUP1 DUP1 DUP1 SLOAD SWAP1 POP PUSH2 0x249 SWAP2 SWAP1 PUSH2 0xED4 JUMP JUMPDEST DUP2 SLOAD DUP2 LT PUSH2 0x25A JUMPI PUSH2 0x259 PUSH2 0xE7A JUMP JUMPDEST JUMPDEST SWAP1 PUSH0 MSTORE PUSH1 0x20 PUSH0 KECCAK256 SWAP1 PUSH1 0x3 MUL ADD PUSH1 0x1 DUP3 DUP2 SLOAD DUP2 LT PUSH2 0x27A JUMPI PUSH2 0x279 PUSH2 0xE7A JUMP JUMPDEST JUMPDEST SWAP1 PUSH0 MSTORE PUSH1 0x20 PUSH0 KECCAK256 SWAP1 PUSH1 0x3 MUL ADD PUSH0 DUP3 ADD PUSH0 SWAP1 SLOAD SWAP1 PUSH2 0x100 EXP SWAP1 DIV PUSH20 0xFFFFFFFFFFFFFFFFFFFFFFFFFFFFFFFFFFFFFFFF AND DUP2 PUSH0 ADD PUSH0 PUSH2 0x100 EXP DUP2 SLOAD DUP2 PUSH20 0xFFFFFFFFFFFFFFFFFFFFFFFFFFFFFFFFFFFFFFFF MUL NOT AND SWAP1 DUP4 PUSH20 0xFFFFFFFFFFFFFFFFFFFFFFFFFFFFFFFFFFFFFFFF AND MUL OR SWAP1 SSTORE POP PUSH1 0x1 DUP3 ADD DUP2 PUSH1 0x1 ADD SWAP1 DUP2 PUSH2 0x2FD SWAP2 SWAP1 PUSH2 0x1119 JUMP JUMPDEST POP PUSH1 0x2 DUP3 ADD SLOAD DUP2 PUSH1 0x2 ADD SSTORE SWAP1 POP POP PUSH1 0x1 DUP1 SLOAD DUP1 PUSH2 0x31D JUMPI PUSH2 0x31C PUSH2 0x11FE JUMP JUMPDEST JUMPDEST PUSH1 0x1 SWAP1 SUB DUP2 DUP2 SWAP1 PUSH0 MSTORE PUSH1 0x20 PUSH0 KECCAK256 SWAP1 PUSH1 0x3 MUL ADD PUSH0 PUSH0 DUP3 ADD PUSH0 PUSH2 0x100 EXP DUP2 SLOAD SWAP1 PUSH20 0xFFFFFFFFFFFFFFFFFFFFFFFFFFFFFFFFFFFFFFFF MUL NOT AND SWAP1 SSTORE PUSH1 0x1 DUP3 ADD PUSH0 PUSH2 0x364 SWAP2 SWAP1 PUSH2 0x930 JUMP JUMPDEST PUSH1 0x2 DUP3 ADD PUSH0 SWAP1 SSTORE POP POP SWAP1 SSTORE PUSH2 0x381 JUMP JUMPDEST DUP1 DUP1 PUSH1 0x1 ADD SWAP2 POP POP PUSH2 0x1B6 JUMP JUMPDEST POP POP JUMP JUMPDEST JUMP JUMPDEST PUSH0 SELFBALANCE SWAP1 POP PUSH0 DUP2 GT PUSH2 0x3CD JUMPI PUSH1 0x40 MLOAD PUSH32 0x8C379A000000000000000000000000000000000000000000000000000000000 DUP2 MSTORE PUSH1 0x4 ADD PUSH2 0x3C4 SWAP1 PUSH2 0x1275 JUMP JUMPDEST PUSH1 0x40 MLOAD DUP1 SWAP2 SUB SWAP1 REVERT JUMPDEST PUSH0 PUSH0 SWAP1 POP JUMPDEST PUSH1 0x1 DUP1 SLOAD SWAP1 POP DUP2 LT ISZERO PUSH2 0x47F JUMPI PUSH0 PUSH1 0x64 PUSH1 0x1 DUP4 DUP2 SLOAD DUP2 LT PUSH2 0x3F6 JUMPI PUSH2 0x3F5 PUSH2 0xE7A JUMP JUMPDEST JUMPDEST SWAP1 PUSH0 MSTORE PUSH1 0x20 PUSH0 KECCAK256 SWAP1 PUSH1 0x3 MUL ADD PUSH1 0x2 ADD SLOAD DUP5 PUSH2 0x411 SWAP2 SWAP1 PUSH2 0x1293 JUMP JUMPDEST PUSH2 0x41B SWAP2 SWAP1 PUSH2 0x1301 JUMP JUMPDEST SWAP1 POP PUSH0 DUP2 GT ISZERO PUSH2 0x471 JUMPI PUSH2 0x470 PUSH1 0x1 DUP4 DUP2 SLOAD DUP2 LT PUSH2 0x43C JUMPI PUSH2 0x43B PUSH2 0xE7A JUMP JUMPDEST JUMPDEST SWAP1 PUSH0 MSTORE PUSH1 0x20 PUSH0 KECCAK256 SWAP1 PUSH1 0x3 MUL ADD PUSH0 ADD PUSH0 SWAP1 SLOAD SWAP1 PUSH2 0x100 EXP SWAP1 DIV PUSH20 0xFFFFFFFFFFFFFFFFFFFFFFFFFFFFFFFFFFFFFFFF AND DUP3 PUSH2 0x883 JUMP JUMPDEST JUMPDEST POP DUP1 DUP1 PUSH1 0x1 ADD SWAP2 POP POP PUSH2 0x3D2 JUMP JUMPDEST POP POP JUMP JUMPDEST PUSH0 PUSH0 SWAP1 SLOAD SWAP1 PUSH2 0x100 EXP SWAP1 DIV PUSH20 0xFFFFFFFFFFFFFFFFFFFFFFFFFFFFFFFFFFFFFFFF AND PUSH20 0xFFFFFFFFFFFFFFFFFFFFFFFFFFFFFFFFFFFFFFFF AND CALLER PUSH20 0xFFFFFFFFFFFFFFFFFFFFFFFFFFFFFFFFFFFFFFFF AND EQ PUSH2 0x511 JUMPI PUSH1 0x40 MLOAD PUSH32 0x8C379A000000000000000000000000000000000000000000000000000000000 DUP2 MSTORE PUSH1 0x4 ADD PUSH2 0x508 SWAP1 PUSH2 0xE5C JUMP JUMPDEST PUSH1 0x40 MLOAD DUP1 SWAP2 SUB SWAP1 REVERT JUMPDEST PUSH0 PUSH0 SWAP1 POP PUSH0 PUSH0 SWAP1 POP PUSH0 PUSH0 SWAP1 POP JUMPDEST PUSH1 0x1 DUP1 SLOAD SWAP1 POP DUP2 LT ISZERO PUSH2 0x5E2 JUMPI DUP6 PUSH20 0xFFFFFFFFFFFFFFFFFFFFFFFFFFFFFFFFFFFFFFFF AND PUSH1 0x1 DUP3 DUP2 SLOAD DUP2 LT PUSH2 0x556 JUMPI PUSH2 0x555 PUSH2 0xE7A JUMP JUMPDEST JUMPDEST SWAP1 PUSH0 MSTORE PUSH1 0x20 PUSH0 KECCAK256 SWAP1 PUSH1 0x3 MUL ADD PUSH0 ADD PUSH0 SWAP1 SLOAD SWAP1 PUSH2 0x100 EXP SWAP1 DIV PUSH20 0xFFFFFFFFFFFFFFFFFFFFFFFFFFFFFFFFFFFFFFFF AND PUSH20 0xFFFFFFFFFFFFFFFFFFFFFFFFFFFFFFFFFFFFFFFF AND SUB PUSH2 0x5A4 JUMPI PUSH1 0x1 SWAP2 POP JUMPDEST PUSH1 0x1 DUP2 DUP2 SLOAD DUP2 LT PUSH2 0x5B8 JUMPI PUSH2 0x5B7 PUSH2 0xE7A JUMP JUMPDEST JUMPDEST SWAP1 PUSH0 MSTORE PUSH1 0x20 PUSH0 KECCAK256 SWAP1 PUSH1 0x3 MUL ADD PUSH1 0x2 ADD SLOAD DUP4 PUSH2 0x5D3 SWAP2 SWAP1 PUSH2 0x1331 JUMP JUMPDEST SWAP3 POP DUP1 DUP1 PUSH1 0x1 ADD SWAP2 POP POP PUSH2 0x51E JUMP JUMPDEST POP PUSH1 0x64 DUP4 DUP4 PUSH2 0x5F1 SWAP2 SWAP1 PUSH2 0x1331 JUMP JUMPDEST GT ISZERO PUSH2 0x632 JUMPI PUSH1 0x40 MLOAD PUSH32 0x8C379A000000000000000000000000000000000000000000000000000000000 DUP2 MSTORE PUSH1 0x4 ADD PUSH2 0x629 SWAP1 PUSH2 0x13AE JUMP JUMPDEST PUSH1 0x40 MLOAD DUP1 SWAP2 SUB SWAP1 REVERT JUMPDEST DUP1 ISZERO PUSH2 0x673 JUMPI PUSH1 0x40 MLOAD PUSH32 0x8C379A000000000000000000000000000000000000000000000000000000000 DUP2 MSTORE PUSH1 0x4 ADD PUSH2 0x66A SWAP1 PUSH2 0x1416 JUMP JUMPDEST PUSH1 0x40 MLOAD DUP1 SWAP2 SUB SWAP1 REVERT JUMPDEST PUSH1 0x1 PUSH1 0x40 MLOAD DUP1 PUSH1 0x60 ADD PUSH1 0x40 MSTORE DUP1 DUP8 PUSH20 0xFFFFFFFFFFFFFFFFFFFFFFFFFFFFFFFFFFFFFFFF AND DUP2 MSTORE PUSH1 0x20 ADD DUP7 DUP2 MSTORE PUSH1 0x20 ADD DUP6 DUP2 MSTORE POP SWAP1 DUP1 PUSH1 0x1 DUP2 SLOAD ADD DUP1 DUP3 SSTORE DUP1 SWAP2 POP POP PUSH1 0x1 SWAP1 SUB SWAP1 PUSH0 MSTORE PUSH1 0x20 PUSH0 KECCAK256 SWAP1 PUSH1 0x3 MUL ADD PUSH0 SWAP1 SWAP2 SWAP1 SWAP2 SWAP1 SWAP2 POP PUSH0 DUP3 ADD MLOAD DUP2 PUSH0 ADD PUSH0 PUSH2 0x100 EXP DUP2 SLOAD DUP2 PUSH20 0xFFFFFFFFFFFFFFFFFFFFFFFFFFFFFFFFFFFFFFFF MUL NOT AND SWAP1 DUP4 PUSH20 0xFFFFFFFFFFFFFFFFFFFFFFFFFFFFFFFFFFFFFFFF AND MUL OR SWAP1 SSTORE POP PUSH1 0x20 DUP3 ADD MLOAD DUP2 PUSH1 0x1 ADD SWAP1 DUP2 PUSH2 0x725 SWAP2 SWAP1 PUSH2 0x1434 JUMP JUMPDEST POP PUSH1 0x40 DUP3 ADD MLOAD DUP2 PUSH1 0x2 ADD SSTORE POP POP POP POP POP POP POP JUMP JUMPDEST PUSH1 0x60 PUSH1 0x1 DUP1 SLOAD DUP1 PUSH1 0x20 MUL PUSH1 0x20 ADD PUSH1 0x40 MLOAD SWAP1 DUP2 ADD PUSH1 0x40 MSTORE DUP1 SWAP3 SWAP2 SWAP1 DUP2 DUP2 MSTORE PUSH1 0x20 ADD PUSH0 SWAP1 JUMPDEST DUP3 DUP3 LT ISZERO PUSH2 0x87A JUMPI DUP4 DUP3 SWAP1 PUSH0 MSTORE PUSH1 0x20 PUSH0 KECCAK256 SWAP1 PUSH1 0x3 MUL ADD PUSH1 0x40 MLOAD DUP1 PUSH1 0x60 ADD PUSH1 0x40 MSTORE SWAP1 DUP2 PUSH0 DUP3 ADD PUSH0 SWAP1 SLOAD SWAP1 PUSH2 0x100 EXP SWAP1 DIV PUSH20 0xFFFFFFFFFFFFFFFFFFFFFFFFFFFFFFFFFFFFFFFF AND PUSH20 0xFFFFFFFFFFFFFFFFFFFFFFFFFFFFFFFFFFFFFFFF AND PUSH20 0xFFFFFFFFFFFFFFFFFFFFFFFFFFFFFFFFFFFFFFFF AND DUP2 MSTORE PUSH1 0x20 ADD PUSH1 0x1 DUP3 ADD DUP1 SLOAD PUSH2 0x7E1 SWAP1 PUSH2 0xF34 JUMP JUMPDEST DUP1 PUSH1 0x1F ADD PUSH1 0x20 DUP1 SWAP2 DIV MUL PUSH1 0x20 ADD PUSH1 0x40 MLOAD SWAP1 DUP2 ADD PUSH1 0x40 MSTORE DUP1 SWAP3 SWAP2 SWAP1 DUP2 DUP2 MSTORE PUSH1 0x20 ADD DUP3 DUP1 SLOAD PUSH2 0x80D SWAP1 PUSH2 0xF34 JUMP JUMPDEST DUP1 ISZERO PUSH2 0x858 JUMPI DUP1 PUSH1 0x1F LT PUSH2 0x82F JUMPI PUSH2 0x100 DUP1 DUP4 SLOAD DIV MUL DUP4 MSTORE SWAP2 PUSH1 0x20 ADD SWAP2 PUSH2 0x858 JUMP JUMPDEST DUP3 ADD SWAP2 SWAP1 PUSH0 MSTORE PUSH1 0x20 PUSH0 KECCAK256 SWAP1 JUMPDEST DUP2 SLOAD DUP2 MSTORE SWAP1 PUSH1 0x1 ADD SWAP1 PUSH1 0x20 ADD DUP1 DUP4 GT PUSH2 0x83B JUMPI DUP3 SWAP1 SUB PUSH1 0x1F AND DUP3 ADD SWAP2 JUMPDEST POP POP POP POP POP DUP2 MSTORE PUSH1 0x20 ADD PUSH1 0x2 DUP3 ADD SLOAD DUP2 MSTORE POP POP DUP2 MSTORE PUSH1 0x20 ADD SWAP1 PUSH1 0x1 ADD SWAP1 PUSH2 0x75C JUMP JUMPDEST POP POP POP POP SWAP1 POP SWAP1 JUMP JUMPDEST PUSH0 DUP3 PUSH20 0xFFFFFFFFFFFFFFFFFFFFFFFFFFFFFFFFFFFFFFFF AND DUP3 PUSH1 0x40 MLOAD PUSH2 0x8A8 SWAP1 PUSH2 0x1530 JUMP JUMPDEST PUSH0 PUSH1 0x40 MLOAD DUP1 DUP4 SUB DUP2 DUP6 DUP8 GAS CALL SWAP3 POP POP POP RETURNDATASIZE DUP1 PUSH0 DUP2 EQ PUSH2 0x8E2 JUMPI PUSH1 0x40 MLOAD SWAP2 POP PUSH1 0x1F NOT PUSH1 0x3F RETURNDATASIZE ADD AND DUP3 ADD PUSH1 0x40 MSTORE RETURNDATASIZE DUP3 MSTORE RETURNDATASIZE PUSH0 PUSH1 0x20 DUP5 ADD RETURNDATACOPY PUSH2 0x8E7 JUMP JUMPDEST PUSH1 0x60 SWAP2 POP JUMPDEST POP POP SWAP1 POP DUP1 PUSH2 0x92B JUMPI PUSH1 0x40 MLOAD PUSH32 0x8C379A000000000000000000000000000000000000000000000000000000000 DUP2 MSTORE PUSH1 0x4 ADD PUSH2 0x922 SWAP1 PUSH2 0x158E JUMP JUMPDEST PUSH1 0x40 MLOAD DUP1 SWAP2 SUB SWAP1 REVERT JUMPDEST POP POP POP JUMP JUMPDEST POP DUP1 SLOAD PUSH2 0x93C SWAP1 PUSH2 0xF34 JUMP JUMPDEST PUSH0 DUP3 SSTORE DUP1 PUSH1 0x1F LT PUSH2 0x94D JUMPI POP PUSH2 0x96A JUMP JUMPDEST PUSH1 0x1F ADD PUSH1 0x20 SWAP1 DIV SWAP1 PUSH0 MSTORE PUSH1 0x20 PUSH0 KECCAK256 SWAP1 DUP2 ADD SWAP1 PUSH2 0x969 SWAP2 SWAP1 PUSH2 0x96D JUMP JUMPDEST JUMPDEST POP JUMP JUMPDEST JUMPDEST DUP1 DUP3 GT ISZERO PUSH2 0x984 JUMPI PUSH0 DUP2 PUSH0 SWAP1 SSTORE POP PUSH1 0x1 ADD PUSH2 0x96E JUMP JUMPDEST POP SWAP1 JUMP JUMPDEST PUSH0 DUP2 SWAP1 POP SWAP2 SWAP1 POP JUMP JUMPDEST PUSH2 0x99A DUP2 PUSH2 0x988 JUMP JUMPDEST DUP3 MSTORE POP POP JUMP JUMPDEST PUSH0 PUSH1 0x20 DUP3 ADD SWAP1 POP PUSH2 0x9B3 PUSH0 DUP4 ADD DUP5 PUSH2 0x991 JUMP JUMPDEST SWAP3 SWAP2 POP POP JUMP JUMPDEST PUSH0 PUSH1 0x40 MLOAD SWAP1 POP SWAP1 JUMP JUMPDEST PUSH0 PUSH0 REVERT JUMPDEST PUSH0 PUSH0 REVERT JUMPDEST PUSH0 PUSH20 0xFFFFFFFFFFFFFFFFFFFFFFFFFFFFFFFFFFFFFFFF DUP3 AND SWAP1 POP SWAP2 SWAP1 POP JUMP JUMPDEST PUSH0 PUSH2 0x9F3 DUP3 PUSH2 0x9CA JUMP JUMPDEST SWAP1 POP SWAP2 SWAP1 POP JUMP JUMPDEST PUSH2 0xA03 DUP2 PUSH2 0x9E9 JUMP JUMPDEST DUP2 EQ PUSH2 0xA0D JUMPI PUSH0 PUSH0 REVERT JUMPDEST POP JUMP JUMPDEST PUSH0 DUP2 CALLDATALOAD SWAP1 POP PUSH2 0xA1E DUP2 PUSH2 0x9FA JUMP JUMPDEST SWAP3 SWAP2 POP POP JUMP JUMPDEST PUSH0 PUSH1 0x20 DUP3 DUP5 SUB SLT ISZERO PUSH2 0xA39 JUMPI PUSH2 0xA38 PUSH2 0x9C2 JUMP JUMPDEST JUMPDEST PUSH0 PUSH2 0xA46 DUP5 DUP3 DUP6 ADD PUSH2 0xA10 JUMP JUMPDEST SWAP2 POP POP SWAP3 SWAP2 POP POP JUMP JUMPDEST PUSH0 PUSH2 0xA59 DUP3 PUSH2 0x9CA JUMP JUMPDEST SWAP1 POP SWAP2 SWAP1 POP JUMP JUMPDEST PUSH2 0xA69 DUP2 PUSH2 0xA4F JUMP JUMPDEST DUP2 EQ PUSH2 0xA73 JUMPI PUSH0 PUSH0 REVERT JUMPDEST POP JUMP JUMPDEST PUSH0 DUP2 CALLDATALOAD SWAP1 POP PUSH2 0xA84 DUP2 PUSH2 0xA60 JUMP JUMPDEST SWAP3 SWAP2 POP POP JUMP JUMPDEST PUSH0 PUSH0 REVERT JUMPDEST PUSH0 PUSH0 REVERT JUMPDEST PUSH0 PUSH1 0x1F NOT PUSH1 0x1F DUP4 ADD AND SWAP1 POP SWAP2 SWAP1 POP JUMP JUMPDEST PUSH32 0x4E487B7100000000000000000000000000000000000000000000000000000000 PUSH0 MSTORE PUSH1 0x41 PUSH1 0x4 MSTORE PUSH1 0x24 PUSH0 REVERT JUMPDEST PUSH2 0xAD8 DUP3 PUSH2 0xA92 JUMP JUMPDEST DUP2 ADD DUP2 DUP2 LT PUSH8 0xFFFFFFFFFFFFFFFF DUP3 GT OR ISZERO PUSH2 0xAF7 JUMPI PUSH2 0xAF6 PUSH2 0xAA2 JUMP JUMPDEST JUMPDEST DUP1 PUSH1 0x40 MSTORE POP POP POP JUMP JUMPDEST PUSH0 PUSH2 0xB09 PUSH2 0x9B9 JUMP JUMPDEST SWAP1 POP PUSH2 0xB15 DUP3 DUP3 PUSH2 0xACF JUMP JUMPDEST SWAP2 SWAP1 POP JUMP JUMPDEST PUSH0 PUSH8 0xFFFFFFFFFFFFFFFF DUP3 GT ISZERO PUSH2 0xB34 JUMPI PUSH2 0xB33 PUSH2 0xAA2 JUMP JUMPDEST JUMPDEST PUSH2 0xB3D DUP3 PUSH2 0xA92 JUMP JUMPDEST SWAP1 POP PUSH1 0x20 DUP2 ADD SWAP1 POP SWAP2 SWAP1 POP JUMP JUMPDEST DUP3 DUP2 DUP4 CALLDATACOPY PUSH0 DUP4 DUP4 ADD MSTORE POP POP POP JUMP JUMPDEST PUSH0 PUSH2 0xB6A PUSH2 0xB65 DUP5 PUSH2 0xB1A JUMP JUMPDEST PUSH2 0xB00 JUMP JUMPDEST SWAP1 POP DUP3 DUP2 MSTORE PUSH1 0x20 DUP2 ADD DUP5 DUP5 DUP5 ADD GT ISZERO PUSH2 0xB86 JUMPI PUSH2 0xB85 PUSH2 0xA8E JUMP JUMPDEST JUMPDEST PUSH2 0xB91 DUP5 DUP3 DUP6 PUSH2 0xB4A JUMP JUMPDEST POP SWAP4 SWAP3 POP POP POP JUMP JUMPDEST PUSH0 DUP3 PUSH1 0x1F DUP4 ADD SLT PUSH2 0xBAD JUMPI PUSH2 0xBAC PUSH2 0xA8A JUMP JUMPDEST JUMPDEST DUP2 CALLDATALOAD PUSH2 0xBBD DUP5 DUP3 PUSH1 0x20 DUP7 ADD PUSH2 0xB58 JUMP JUMPDEST SWAP2 POP POP SWAP3 SWAP2 POP POP JUMP JUMPDEST PUSH2 0xBCF DUP2 PUSH2 0x988 JUMP JUMPDEST DUP2 EQ PUSH2 0xBD9 JUMPI PUSH0 PUSH0 REVERT JUMPDEST POP JUMP JUMPDEST PUSH0 DUP2 CALLDATALOAD SWAP1 POP PUSH2 0xBEA DUP2 PUSH2 0xBC6 JUMP JUMPDEST SWAP3 SWAP2 POP POP JUMP JUMPDEST PUSH0 PUSH0 PUSH0 PUSH1 0x60 DUP5 DUP7 SUB SLT ISZERO PUSH2 0xC07 JUMPI PUSH2 0xC06 PUSH2 0x9C2 JUMP JUMPDEST JUMPDEST PUSH0 PUSH2 0xC14 DUP7 DUP3 DUP8 ADD PUSH2 0xA76 JUMP JUMPDEST SWAP4 POP POP PUSH1 0x20 DUP5 ADD CALLDATALOAD PUSH8 0xFFFFFFFFFFFFFFFF DUP2 GT ISZERO PUSH2 0xC35 JUMPI PUSH2 0xC34 PUSH2 0x9C6 JUMP JUMPDEST JUMPDEST PUSH2 0xC41 DUP7 DUP3 DUP8 ADD PUSH2 0xB99 JUMP JUMPDEST SWAP3 POP POP PUSH1 0x40 PUSH2 0xC52 DUP7 DUP3 DUP8 ADD PUSH2 0xBDC JUMP JUMPDEST SWAP2 POP POP SWAP3 POP SWAP3 POP SWAP3 JUMP JUMPDEST PUSH0 DUP2 MLOAD SWAP1 POP SWAP2 SWAP1 POP JUMP JUMPDEST PUSH0 DUP3 DUP3 MSTORE PUSH1 0x20 DUP3 ADD SWAP1 POP SWAP3 SWAP2 POP POP JUMP JUMPDEST PUSH0 DUP2 SWAP1 POP PUSH1 0x20 DUP3 ADD SWAP1 POP SWAP2 SWAP1 POP JUMP JUMPDEST PUSH2 0xC8E DUP2 PUSH2 0xA4F JUMP JUMPDEST DUP3 MSTORE POP POP JUMP JUMPDEST PUSH0 DUP2 MLOAD SWAP1 POP SWAP2 SWAP1 POP JUMP JUMPDEST PUSH0 DUP3 DUP3 MSTORE PUSH1 0x20 DUP3 ADD SWAP1 POP SWAP3 SWAP2 POP POP JUMP JUMPDEST DUP3 DUP2 DUP4 MCOPY PUSH0 DUP4 DUP4 ADD MSTORE POP POP POP JUMP JUMPDEST PUSH0 PUSH2 0xCC6 DUP3 PUSH2 0xC94 JUMP JUMPDEST PUSH2 0xCD0 DUP2 DUP6 PUSH2 0xC9E JUMP JUMPDEST SWAP4 POP PUSH2 0xCE0 DUP2 DUP6 PUSH1 0x20 DUP7 ADD PUSH2 0xCAE JUMP JUMPDEST PUSH2 0xCE9 DUP2 PUSH2 0xA92 JUMP JUMPDEST DUP5 ADD SWAP2 POP POP SWAP3 SWAP2 POP POP JUMP JUMPDEST PUSH2 0xCFD DUP2 PUSH2 0x988 JUMP JUMPDEST DUP3 MSTORE POP POP JUMP JUMPDEST PUSH0 PUSH1 0x60 DUP4 ADD PUSH0 DUP4 ADD MLOAD PUSH2 0xD18 PUSH0 DUP7 ADD DUP3 PUSH2 0xC85 JUMP JUMPDEST POP PUSH1 0x20 DUP4 ADD MLOAD DUP5 DUP3 SUB PUSH1 0x20 DUP7 ADD MSTORE PUSH2 0xD30 DUP3 DUP3 PUSH2 0xCBC JUMP JUMPDEST SWAP2 POP POP PUSH1 0x40 DUP4 ADD MLOAD PUSH2 0xD45 PUSH1 0x40 DUP7 ADD DUP3 PUSH2 0xCF4 JUMP JUMPDEST POP DUP1 SWAP2 POP POP SWAP3 SWAP2 POP POP JUMP JUMPDEST PUSH0 PUSH2 0xD5B DUP4 DUP4 PUSH2 0xD03 JUMP JUMPDEST SWAP1 POP SWAP3 SWAP2 POP POP JUMP JUMPDEST PUSH0 PUSH1 0x20 DUP3 ADD SWAP1 POP SWAP2 SWAP1 POP JUMP JUMPDEST PUSH0 PUSH2 0xD79 DUP3 PUSH2 0xC5C JUMP JUMPDEST PUSH2 0xD83 DUP2 DUP6 PUSH2 0xC66 JUMP JUMPDEST SWAP4 POP DUP4 PUSH1 0x20 DUP3 MUL DUP6 ADD PUSH2 0xD95 DUP6 PUSH2 0xC76 JUMP JUMPDEST DUP1 PUSH0 JUMPDEST DUP6 DUP2 LT ISZERO PUSH2 0xDD0 JUMPI DUP5 DUP5 SUB DUP10 MSTORE DUP2 MLOAD PUSH2 0xDB1 DUP6 DUP3 PUSH2 0xD50 JUMP JUMPDEST SWAP5 POP PUSH2 0xDBC DUP4 PUSH2 0xD63 JUMP JUMPDEST SWAP3 POP PUSH1 0x20 DUP11 ADD SWAP10 POP POP PUSH1 0x1 DUP2 ADD SWAP1 POP PUSH2 0xD98 JUMP JUMPDEST POP DUP3 SWAP8 POP DUP8 SWAP6 POP POP POP POP POP POP SWAP3 SWAP2 POP POP JUMP JUMPDEST PUSH0 PUSH1 0x20 DUP3 ADD SWAP1 POP DUP2 DUP2 SUB PUSH0 DUP4 ADD MSTORE PUSH2 0xDFA DUP2 DUP5 PUSH2 0xD6F JUMP JUMPDEST SWAP1 POP SWAP3 SWAP2 POP POP JUMP JUMPDEST PUSH0 DUP3 DUP3 MSTORE PUSH1 0x20 DUP3 ADD SWAP1 POP SWAP3 SWAP2 POP POP JUMP JUMPDEST PUSH32 0x4F6E6C79206F776E65722063616E2063616C6C00000000000000000000000000 PUSH0 DUP3 ADD MSTORE POP JUMP JUMPDEST PUSH0 PUSH2 0xE46 PUSH1 0x13 DUP4 PUSH2 0xE02 JUMP JUMPDEST SWAP2 POP PUSH2 0xE51 DUP3 PUSH2 0xE12 JUMP JUMPDEST PUSH1 0x20 DUP3 ADD SWAP1 POP SWAP2 SWAP1 POP JUMP JUMPDEST PUSH0 PUSH1 0x20 DUP3 ADD SWAP1 POP DUP2 DUP2 SUB PUSH0 DUP4 ADD MSTORE PUSH2 0xE73 DUP2 PUSH2 0xE3A JUMP JUMPDEST SWAP1 POP SWAP2 SWAP1 POP JUMP JUMPDEST PUSH32 0x4E487B7100000000000000000000000000000000000000000000000000000000 PUSH0 MSTORE PUSH1 0x32 PUSH1 0x4 MSTORE PUSH1 0x24 PUSH0 REVERT JUMPDEST PUSH32 0x4E487B7100000000000000000000000000000000000000000000000000000000 PUSH0 MSTORE PUSH1 0x11 PUSH1 0x4 MSTORE PUSH1 0x24 PUSH0 REVERT JUMPDEST PUSH0 PUSH2 0xEDE DUP3 PUSH2 0x988 JUMP JUMPDEST SWAP2 POP PUSH2 0xEE9 DUP4 PUSH2 0x988 JUMP JUMPDEST SWAP3 POP DUP3 DUP3 SUB SWAP1 POP DUP2 DUP2 GT ISZERO PUSH2 0xF01 JUMPI PUSH2 0xF00 PUSH2 0xEA7 JUMP JUMPDEST JUMPDEST SWAP3 SWAP2 POP POP JUMP JUMPDEST PUSH32 0x4E487B7100000000000000000000000000000000000000000000000000000000 PUSH0 MSTORE PUSH1 0x22 PUSH1 0x4 MSTORE PUSH1 0x24 PUSH0 REVERT JUMPDEST PUSH0 PUSH1 0x2 DUP3 DIV SWAP1 POP PUSH1 0x1 DUP3 AND DUP1 PUSH2 0xF4B JUMPI PUSH1 0x7F DUP3 AND SWAP2 POP JUMPDEST PUSH1 0x20 DUP3 LT DUP2 SUB PUSH2 0xF5E JUMPI PUSH2 0xF5D PUSH2 0xF07 JUMP JUMPDEST JUMPDEST POP SWAP2 SWAP1 POP JUMP JUMPDEST PUSH0 DUP2 SLOAD SWAP1 POP PUSH2 0xF72 DUP2 PUSH2 0xF34 JUMP JUMPDEST SWAP1 POP SWAP2 SWAP1 POP JUMP JUMPDEST PUSH0 DUP2 SWAP1 POP DUP2 PUSH0 MSTORE PUSH1 0x20 PUSH0 KECCAK256 SWAP1 POP SWAP2 SWAP1 POP JUMP JUMPDEST PUSH0 PUSH1 0x20 PUSH1 0x1F DUP4 ADD DIV SWAP1 POP SWAP2 SWAP1 POP JUMP JUMPDEST PUSH0 DUP3 DUP3 SHL SWAP1 POP SWAP3 SWAP2 POP POP JUMP JUMPDEST PUSH0 PUSH1 0x8 DUP4 MUL PUSH2 0xFD5 PUSH32 0xFFFFFFFFFFFFFFFFFFFFFFFFFFFFFFFFFFFFFFFFFFFFFFFFFFFFFFFFFFFFFFFF DUP3 PUSH2 0xF9A JUMP JUMPDEST PUSH2 0xFDF DUP7 DUP4 PUSH2 0xF9A JUMP JUMPDEST SWAP6 POP DUP1 NOT DUP5 AND SWAP4 POP DUP1 DUP7 AND DUP5 OR SWAP3 POP POP POP SWAP4 SWAP3 POP POP POP JUMP JUMPDEST PUSH0 DUP2 SWAP1 POP SWAP2 SWAP1 POP JUMP JUMPDEST PUSH0 PUSH2 0x101A PUSH2 0x1015 PUSH2 0x1010 DUP5 PUSH2 0x988 JUMP JUMPDEST PUSH2 0xFF7 JUMP JUMPDEST PUSH2 0x988 JUMP JUMPDEST SWAP1 POP SWAP2 SWAP1 POP JUMP JUMPDEST PUSH0 DUP2 SWAP1 POP SWAP2 SWAP1 POP JUMP JUMPDEST PUSH2 0x1033 DUP4 PUSH2 0x1000 JUMP JUMPDEST PUSH2 0x1047 PUSH2 0x103F DUP3 PUSH2 0x1021 JUMP JUMPDEST DUP5 DUP5 SLOAD PUSH2 0xFA6 JUMP JUMPDEST DUP3 SSTORE POP POP POP POP JUMP JUMPDEST PUSH0 PUSH0 SWAP1 POP SWAP1 JUMP JUMPDEST PUSH2 0x105E PUSH2 0x104F JUMP JUMPDEST PUSH2 0x1069 DUP2 DUP5 DUP5 PUSH2 0x102A JUMP JUMPDEST POP POP POP JUMP JUMPDEST JUMPDEST DUP2 DUP2 LT ISZERO PUSH2 0x108C JUMPI PUSH2 0x1081 PUSH0 DUP3 PUSH2 0x1056 JUMP JUMPDEST PUSH1 0x1 DUP2 ADD SWAP1 POP PUSH2 0x106F JUMP JUMPDEST POP POP JUMP JUMPDEST PUSH1 0x1F DUP3 GT ISZERO PUSH2 0x10D1 JUMPI PUSH2 0x10A2 DUP2 PUSH2 0xF79 JUMP JUMPDEST PUSH2 0x10AB DUP5 PUSH2 0xF8B JUMP JUMPDEST DUP2 ADD PUSH1 0x20 DUP6 LT ISZERO PUSH2 0x10BA JUMPI DUP2 SWAP1 POP JUMPDEST PUSH2 0x10CE PUSH2 0x10C6 DUP6 PUSH2 0xF8B JUMP JUMPDEST DUP4 ADD DUP3 PUSH2 0x106E JUMP JUMPDEST POP POP JUMPDEST POP POP POP JUMP JUMPDEST PUSH0 DUP3 DUP3 SHR SWAP1 POP SWAP3 SWAP2 POP POP JUMP JUMPDEST PUSH0 PUSH2 0x10F1 PUSH0 NOT DUP5 PUSH1 0x8 MUL PUSH2 0x10D6 JUMP JUMPDEST NOT DUP1 DUP4 AND SWAP2 POP POP SWAP3 SWAP2 POP POP JUMP JUMPDEST PUSH0 PUSH2 0x1109 DUP4 DUP4 PUSH2 0x10E2 JUMP JUMPDEST SWAP2 POP DUP3 PUSH1 0x2 MUL DUP3 OR SWAP1 POP SWAP3 SWAP2 POP POP JUMP JUMPDEST DUP2 DUP2 SUB PUSH2 0x1127 JUMPI POP POP PUSH2 0x11FC JUMP JUMPDEST PUSH2 0x1130 DUP3 PUSH2 0xF64 JUMP JUMPDEST PUSH8 0xFFFFFFFFFFFFFFFF DUP2 GT ISZERO PUSH2 0x1149 JUMPI PUSH2 0x1148 PUSH2 0xAA2 JUMP JUMPDEST JUMPDEST PUSH2 0x1153 DUP3 SLOAD PUSH2 0xF34 JUMP JUMPDEST PUSH2 0x115E DUP3 DUP3 DUP6 PUSH2 0x1090 JUMP JUMPDEST PUSH0 PUSH1 0x1F DUP4 GT PUSH1 0x1 DUP2 EQ PUSH2 0x118B JUMPI PUSH0 DUP5 ISZERO PUSH2 0x1179 JUMPI DUP3 DUP8 ADD SLOAD SWAP1 POP JUMPDEST PUSH2 0x1183 DUP6 DUP3 PUSH2 0x10FE JUMP JUMPDEST DUP7 SSTORE POP PUSH2 0x11F5 JUMP JUMPDEST PUSH1 0x1F NOT DUP5 AND PUSH2 0x1199 DUP8 PUSH2 0xF79 JUMP JUMPDEST SWAP7 POP PUSH2 0x11A4 DUP7 PUSH2 0xF79 JUMP JUMPDEST PUSH0 JUMPDEST DUP3 DUP2 LT ISZERO PUSH2 0x11CB JUMPI DUP5 DUP10 ADD SLOAD DUP3 SSTORE PUSH1 0x1 DUP3 ADD SWAP2 POP PUSH1 0x1 DUP6 ADD SWAP5 POP PUSH1 0x20 DUP2 ADD SWAP1 POP PUSH2 0x11A6 JUMP JUMPDEST DUP7 DUP4 LT ISZERO PUSH2 0x11E8 JUMPI DUP5 DUP10 ADD SLOAD PUSH2 0x11E4 PUSH1 0x1F DUP10 AND DUP3 PUSH2 0x10E2 JUMP JUMPDEST DUP4 SSTORE POP JUMPDEST PUSH1 0x1 PUSH1 0x2 DUP9 MUL ADD DUP9 SSTORE POP POP POP JUMPDEST POP POP POP POP POP POP JUMPDEST JUMP JUMPDEST PUSH32 0x4E487B7100000000000000000000000000000000000000000000000000000000 PUSH0 MSTORE PUSH1 0x31 PUSH1 0x4 MSTORE PUSH1 0x24 PUSH0 REVERT JUMPDEST PUSH32 0x4E6F204D6F6E6579000000000000000000000000000000000000000000000000 PUSH0 DUP3 ADD MSTORE POP JUMP JUMPDEST PUSH0 PUSH2 0x125F PUSH1 0x8 DUP4 PUSH2 0xE02 JUMP JUMPDEST SWAP2 POP PUSH2 0x126A DUP3 PUSH2 0x122B JUMP JUMPDEST PUSH1 0x20 DUP3 ADD SWAP1 POP SWAP2 SWAP1 POP JUMP JUMPDEST PUSH0 PUSH1 0x20 DUP3 ADD SWAP1 POP DUP2 DUP2 SUB PUSH0 DUP4 ADD MSTORE PUSH2 0x128C DUP2 PUSH2 0x1253 JUMP JUMPDEST SWAP1 POP SWAP2 SWAP1 POP JUMP JUMPDEST PUSH0 PUSH2 0x129D DUP3 PUSH2 0x988 JUMP JUMPDEST SWAP2 POP PUSH2 0x12A8 DUP4 PUSH2 0x988 JUMP JUMPDEST SWAP3 POP DUP3 DUP3 MUL PUSH2 0x12B6 DUP2 PUSH2 0x988 JUMP JUMPDEST SWAP2 POP DUP3 DUP3 DIV DUP5 EQ DUP4 ISZERO OR PUSH2 0x12CD JUMPI PUSH2 0x12CC PUSH2 0xEA7 JUMP JUMPDEST JUMPDEST POP SWAP3 SWAP2 POP POP JUMP JUMPDEST PUSH32 0x4E487B7100000000000000000000000000000000000000000000000000000000 PUSH0 MSTORE PUSH1 0x12 PUSH1 0x4 MSTORE PUSH1 0x24 PUSH0 REVERT JUMPDEST PUSH0 PUSH2 0x130B DUP3 PUSH2 0x988 JUMP JUMPDEST SWAP2 POP PUSH2 0x1316 DUP4 PUSH2 0x988 JUMP JUMPDEST SWAP3 POP DUP3 PUSH2 0x1326 JUMPI PUSH2 0x1325 PUSH2 0x12D4 JUMP JUMPDEST JUMPDEST DUP3 DUP3 DIV SWAP1 POP SWAP3 SWAP2 POP POP JUMP JUMPDEST PUSH0 PUSH2 0x133B DUP3 PUSH2 0x988 JUMP JUMPDEST SWAP2 POP PUSH2 0x1346 DUP4 PUSH2 0x988 JUMP JUMPDEST SWAP3 POP DUP3 DUP3 ADD SWAP1 POP DUP1 DUP3 GT ISZERO PUSH2 0x135E JUMPI PUSH2 0x135D PUSH2 0xEA7 JUMP JUMPDEST JUMPDEST SWAP3 SWAP2 POP POP JUMP JUMPDEST PUSH32 0x546F74616C2070657263656E7420657863656564732031303025000000000000 PUSH0 DUP3 ADD MSTORE POP JUMP JUMPDEST PUSH0 PUSH2 0x1398 PUSH1 0x1A DUP4 PUSH2 0xE02 JUMP JUMPDEST SWAP2 POP PUSH2 0x13A3 DUP3 PUSH2 0x1364 JUMP JUMPDEST PUSH1 0x20 DUP3 ADD SWAP1 POP SWAP2 SWAP1 POP JUMP JUMPDEST PUSH0 PUSH1 0x20 DUP3 ADD SWAP1 POP DUP2 DUP2 SUB PUSH0 DUP4 ADD MSTORE PUSH2 0x13C5 DUP2 PUSH2 0x138C JUMP JUMPDEST SWAP1 POP SWAP2 SWAP1 POP JUMP JUMPDEST PUSH32 0x576169747265737320616C726561647920657869737473000000000000000000 PUSH0 DUP3 ADD MSTORE POP JUMP JUMPDEST PUSH0 PUSH2 0x1400 PUSH1 0x17 DUP4 PUSH2 0xE02 JUMP JUMPDEST SWAP2 POP PUSH2 0x140B DUP3 PUSH2 0x13CC JUMP JUMPDEST PUSH1 0x20 DUP3 ADD SWAP1 POP SWAP2 SWAP1 POP JUMP JUMPDEST PUSH0 PUSH1 0x20 DUP3 ADD SWAP1 POP DUP2 DUP2 SUB PUSH0 DUP4 ADD MSTORE PUSH2 0x142D DUP2 PUSH2 0x13F4 JUMP JUMPDEST SWAP1 POP SWAP2 SWAP1 POP JUMP JUMPDEST PUSH2 0x143D DUP3 PUSH2 0xC94 JUMP JUMPDEST PUSH8 0xFFFFFFFFFFFFFFFF DUP2 GT ISZERO PUSH2 0x1456 JUMPI PUSH2 0x1455 PUSH2 0xAA2 JUMP JUMPDEST JUMPDEST PUSH2 0x1460 DUP3 SLOAD PUSH2 0xF34 JUMP JUMPDEST PUSH2 0x146B DUP3 DUP3 DUP6 PUSH2 0x1090 JUMP JUMPDEST PUSH0 PUSH1 0x20 SWAP1 POP PUSH1 0x1F DUP4 GT PUSH1 0x1 DUP2 EQ PUSH2 0x149C JUMPI PUSH0 DUP5 ISZERO PUSH2 0x148A JUMPI DUP3 DUP8 ADD MLOAD SWAP1 POP JUMPDEST PUSH2 0x1494 DUP6 DUP3 PUSH2 0x10FE JUMP JUMPDEST DUP7 SSTORE POP PUSH2 0x14FB JUMP JUMPDEST PUSH1 0x1F NOT DUP5 AND PUSH2 0x14AA DUP7 PUSH2 0xF79 JUMP JUMPDEST PUSH0 JUMPDEST DUP3 DUP2 LT ISZERO PUSH2 0x14D1 JUMPI DUP5 DUP10 ADD MLOAD DUP3 SSTORE PUSH1 0x1 DUP3 ADD SWAP2 POP PUSH1 0x20 DUP6 ADD SWAP5 POP PUSH1 0x20 DUP2 ADD SWAP1 POP PUSH2 0x14AC JUMP JUMPDEST DUP7 DUP4 LT ISZERO PUSH2 0x14EE JUMPI DUP5 DUP10 ADD MLOAD PUSH2 0x14EA PUSH1 0x1F DUP10 AND DUP3 PUSH2 0x10E2 JUMP JUMPDEST DUP4 SSTORE POP JUMPDEST PUSH1 0x1 PUSH1 0x2 DUP9 MUL ADD DUP9 SSTORE POP POP POP JUMPDEST POP POP POP POP POP POP JUMP JUMPDEST PUSH0 DUP2 SWAP1 POP SWAP3 SWAP2 POP POP JUMP JUMPDEST POP JUMP JUMPDEST PUSH0 PUSH2 0x151B PUSH0 DUP4 PUSH2 0x1503 JUMP JUMPDEST SWAP2 POP PUSH2 0x1526 DUP3 PUSH2 0x150D JUMP JUMPDEST PUSH0 DUP3 ADD SWAP1 POP SWAP2 SWAP1 POP JUMP JUMPDEST PUSH0 PUSH2 0x153A DUP3 PUSH2 0x1510 JUMP JUMPDEST SWAP2 POP DUP2 SWAP1 POP SWAP2 SWAP1 POP JUMP JUMPDEST PUSH32 0x5472616E73666572206661696C65642E00000000000000000000000000000000 PUSH0 DUP3 ADD MSTORE POP JUMP JUMPDEST PUSH0 PUSH2 0x1578 PUSH1 0x10 DUP4 PUSH2 0xE02 JUMP JUMPDEST SWAP2 POP PUSH2 0x1583 DUP3 PUSH2 0x1544 JUMP JUMPDEST PUSH1 0x20 DUP3 ADD SWAP1 POP SWAP2 SWAP1 POP JUMP JUMPDEST PUSH0 PUSH1 0x20 DUP3 ADD SWAP1 POP DUP2 DUP2 SUB PUSH0 DUP4 ADD MSTORE PUSH2 0x15A5 DUP2 PUSH2 0x156C JUMP JUMPDEST SWAP1 POP SWAP2 SWAP1 POP JUMP INVALID LOG2 PUSH5 0x6970667358 0x22 SLT KECCAK256 XOR CALLF 0x7B4A 0xBC 0x23 0xBF 0x26 0xD7 0xBA REVERT 0x2F SGT 0xA7 0x21 PUSH5 0xB84AE1E2FA SWAP8 PUSH6 0xD62C2531BA4B 0xA9 SELFDESTRUCT JUMP PUSH5 0x736F6C6343 STOP ADDMOD 0x1F STOP CALLER "
		},
		"gasEstimates": {
			"creation": {
				"codeDepositCost": "1120400",
				"executionCost": "25429",
				"totalCost": "1145829"
			},
			"external": {
				"addWaitress(address,string,uint256)": "infinite",
				"addtips()": "141",
				"distributeBalance()": "infinite",
				"removeWaitress(address)": "infinite",
				"viewWaitress()": "infinite",
				"viewtips()": "312"
			},
			"internal": {
				"_transferFunds(address payable,uint256)": "infinite"
			}
		},
		"methodIdentifiers": {
			"addWaitress(address,string,uint256)": "b499b79a",
			"addtips()": "6e7301fd",
			"distributeBalance()": "7943da69",
			"removeWaitress(address)": "369a489d",
			"viewWaitress()": "e83a1b00",
			"viewtips()": "2a08deda"
		}
	},
	"abi": [
		{
			"inputs": [],
			"stateMutability": "nonpayable",
			"type": "constructor"
		},
		{
			"inputs": [
				{
					"internalType": "address payable",
					"name": "walletAddress",
					"type": "address"
				},
				{
					"internalType": "string",
					"name": "name",
					"type": "string"
				},
				{
					"internalType": "uint256",
					"name": "percent",
					"type": "uint256"
				}
			],
			"name": "addWaitress",
			"outputs": [],
			"stateMutability": "nonpayable",
			"type": "function"
		},
		{
			"inputs": [],
			"name": "addtips",
			"outputs": [],
			"stateMutability": "payable",
			"type": "function"
		},
		{
			"inputs": [],
			"name": "distributeBalance",
			"outputs": [],
			"stateMutability": "nonpayable",
			"type": "function"
		},
		{
			"inputs": [
				{
					"internalType": "address",
					"name": "walletAddress",
					"type": "address"
				}
			],
			"name": "removeWaitress",
			"outputs": [],
			"stateMutability": "nonpayable",
			"type": "function"
		},
		{
			"inputs": [],
			"name": "viewWaitress",
			"outputs": [
				{
					"components": [
						{
							"internalType": "address payable",
							"name": "walletAddress",
							"type": "address"
						},
						{
							"internalType": "string",
							"name": "name",
							"type": "string"
						},
						{
							"internalType": "uint256",
							"name": "percent",
							"type": "uint256"
						}
					],
					"internalType": "struct tips.Waitress[]",
					"name": "",
					"type": "tuple[]"
				}
			],
			"stateMutability": "view",
			"type": "function"
		},
		{
			"inputs": [],
			"name": "viewtips",
			"outputs": [
				{
					"internalType": "uint256",
					"name": "",
					"type": "uint256"
				}
			],
			"stateMutability": "view",
			"type": "function"
		}
	]
}